:020000040800F2
:10000000005E0020C1010008DD6400085D390008C1
:10001000793D0008E10A0008B78C000800000000E4
:100020000000000000000000000000005176000801
:10003000612C000800000000F96C0008677B0008D4
:10004000DB010008DB010008DB010008DB01000820
:10005000DB010008DB010008DB010008DB01000810
:10006000DB010008DB010008DB010008DB01000800
:10007000DB010008DB010008DB010008DB010008F0
:10008000DB01000849290008DB0100082D0C0008ED
:10009000F10B0008DB010008DB010008DB010008B0
:1000A000DB010008DB010008DB010008DB010008C0
:1000B0000D7C0008DB010008DB010008DB01000803
:1000C000DB010008DB010008DB010008DB010008A0
:1000D000DB01000815820008D5820008B5830008FE
:1000E000DB010008DB010008DB010008DB01000880
:1000F000DB010008DB010008DB010008DB01000870
:10010000DB010008DB010008DB010008DB0100085F
:10011000DB010008DB010008797C0008DB01000836
:10012000DB010008DB010008DB010008DB0100083F
:10013000DB010008DB010008DB010008950D000869
:10014000650D0008DB010008DB010008DB01000889
:10015000DB010008DB010008DB0100086D880008F6
:10016000DB010008DB010008DB010008DB010008FF
:10017000DB010008DB010008DB01000800000000D3
:10018000DB010008DB01000849800008DB010008F2
:10019000DB010008DB010008DB010008DB010008CF
:1001A0000000000000000000DB010008DFF80CD0B8
:1001B00000F004FC00480047A59D0008005E0020F8
:1001C0000648804706480047FEE7FEE7FEE7FEE7F1
:1001D000FEE7FEE7FEE7FEE7FEE7FEE7697B0008D5
:1001E000AD010008002202604160704741680029AB
:1001F00002DC9FED170A70470268511C01604168DC
:100200008A4201DB41680160016800EE101AF8EED5
:10021000C00A416800EE101AB8EEC01A80EE810ADA
:1002200010EE101A8160816800EE101AE3E7016099
:1002300070470021016070474160704701460868BF
:100240004A68904201DB012070470020FCE7000073
:10025000000000009FED460A80ED000A9FED440A71
:1002600080ED010A9FED420A80ED070A9FED400AEA
:1002700080ED080A9FED3E0A80ED090A9FED3C0AD9
:1002800080ED0D0A704790ED030A80ED020A90EDB3
:10029000000AD0ED010A30EE600A80ED030A90ED0D
:1002A000040AD0ED030A20EE200A80ED070A90ED43
:1002B000080AD0ED050A90ED031A00EE810A80EDE0
:1002C000080A90ED030AD0ED020A30EE600AD0ED84
:1002D000060A20EE200A80ED090A90ED080AD0ED0A
:1002E0000B0AF1EE600AB4EEE00AF1EE10FA06D85D
:1002F00090ED0B0AB1EE400A80ED080A0CE090ED9B
:10030000080AD0ED0B0AB4EEE00AF1EE10FA03DBB6
:1003100090ED0B0A80ED080A90ED070AD0ED080A6F
:1003200030EE200AD0ED090A30EE200A80ED0D0AE9
:1003300090ED0D0AD0ED0E0AF1EE600AB4EEE00A7F
:10034000F1EE10FA06D890ED0E0AB1EE400A80EDFB
:100350000D0A0CE090ED0D0AD0ED0E0AB4EEE00AA5
:10036000F1EE10FA03DB90ED0E0A80ED0D0A7047F6
:100370000000000040EA01039B0703D009E008C920
:10038000121F08C0042AFAD203E011F8013B00F85A
:10039000013B521EF9D27047D2B201E000F8012BA6
:1003A000491EFBD270470022F6E710B513460A46F5
:1003B00004461946FFF7F0FF204610BD2DE9FE4F19
:1003C000804681EA0300C00F0C46009021F00041F6
:1003D00023F00045B8EB0200A94105D24046214672
:1003E00090461C460B46024623F00040104347D07F
:1003F000270DC7F30A00C3F30A510290401A019077
:1004000040286BDAC3F3130040F4801B0098924637
:1004100020B10023D2EB030A63EB0B0B0198594682
:10042000C0F14002504600F0EDF906460D46504638
:100430005946019A00F005FA10EB080061410024CA
:1004400087EA115284EAE7731A4340D0009A62B3F4
:10045000019A012A4FEA075215DC001B61EB0201E9
:100460004FF0004202EA0752CDE90042001C41F57C
:10047000801132462B4600F03CFA03B0BDE8F08F05
:1004800040462146F9E7001B61EB0201001C41F5E3
:10049000801300185B412018A2F5001747EB0301F9
:1004A00040EAD570B6196D4111E06D084FEA360685
:1004B00045EAC0754FEA0752001B61EB0201001CC0
:1004C00041F5801149084FEA300000195141324688
:1004D0002B4603B0BDE8F04F00F0FCB900980122B4
:1004E00040000023D0EB020263EBE073009821464A
:1004F0004FEAE074B8EB000061EB0401E9E783F038
:1005000000435BE781F0004158E72DE9FE4F81EAA7
:10051000030404F0004421F0004100944FF0000B6C
:1005200023F0004350EA01045ED052EA03045BD09A
:10053000C3F30A54C1F30A552C44A4F2F3340194D2
:10054000A0FB0254C1F3130141F48011C3F3130360
:1005500043F4801301FB024400FB034E840A970A14
:1005600044EA815447EA8357A4FB076802958D0A41
:1005700005FB07854FEA932C04FB0C542705029DCD
:100580004FEA065847EA1637B5EB08056EEB070C3D
:10059000870E920E47EA811742EA8312A7FB0201F7
:1005A000B6EB0B0164EB00042B0D43EA0C335E1831
:1005B00044EB1C50DA465146E7FB0201C5F3130435
:1005C0004FEA0B3343EA14534FEA0432019C43EAE7
:1005D0000603A4F10C040294009CCDE900B400F0E1
:1005E00088F903B0BDE8F08F00200146F9E72DE956
:1005F000F04D81EA030404F0004B21F0004514465D
:100600004FF0000A23F0004150EA050220D054EADE
:1006100001021DD0C5F30A570246C5F31303C1F307
:100620001300C1F30A5640F4801543F48013A7EB7E
:100630000608101BD64608F2FD3873EB050002D3FE
:1006400008F1010801E092185B41B8F1000F03DAEC
:1006500000200146BDE8F08D00204FF480110646D1
:1006600084460EE0171B73EB050705D3121B63EBE3
:10067000050306434CEA010C49084FEA3000921882
:100680005B4150EA0107EDD152EA030012D082EA41
:10069000040083EA0501084305D0101BAB4106D2D4
:1006A0000122002306E000224FF0004302E06FF039
:1006B000010253101AEB06004CEB085110EB0A0034
:1006C00041EB0B01BDE8F04D00F004B90EB5C10FD0
:1006D00080EAE0700844CA07002140F233438DE805
:1006E0000E000A460B4600F004F903B000BD0EB53B
:1006F00040F2334102910021CDE900110A460B4638
:1007000000F0F7F803B000BD70B5C1F30A5201F074
:1007100000450024C1F3130140F2FF3341F480117E
:100720009A4201DA002070BD40F233439A42A2F2AD
:10073000334203DC524200F074F800E090402C4356
:10074000F1D0404270BD00F0004230F000400AD0CD
:10075000C10D01F56071C0F3160042EA0151C208F3
:1007600040071143704700200146704730B5041E12
:1007700071F1000404DB4FF00044404264EB0101DE
:10078000141E73F1000405DB1C464FF00043524277
:1007900063EB04038B4208BF824230BD30B5041EB8
:1007A00071F1000404DB4FF00044404264EB0101AE
:1007B000141E73F1000405DB1C464FF00043524247
:1007C00063EB0403994208BF904230BD01F000433F
:1007D00030B421F0004150EA010206D00A0DA2F522
:1007E0006072C1F31301002A02DC30BC00207047A4
:1007F000440F44EAC104C100E01830BC00EBC25011
:1008000000F031B8202A04DB203A00FA02F100207F
:1008100070479140C2F1200320FA03F3194390403E
:100820007047202A04DB203A21FA02F000217047A9
:1008300021FA02F3D040C2F1200291400843194648
:100840007047202A06DBCB17203A41FA02F043EA30
:10085000E07306E041FA02F3D040C2F12002914079
:100860000843194670470029A8BF7047401C49003B
:1008700008BF20F00100704710B4B0FA80FC00FA05
:100880000CF050EA010404BF10BC704749B1CCF130
:10089000200421FA04F411FA0CF118BF01212143BC
:1008A0000843A3EB0C01CB1D4FEA00614FEA102077
:1008B00042BF002010BC704700EBC3501044002919
:1008C000A4BF10BC7047401C490008BF20F00100C5
:1008D00010BC704710B5141E73F1000408DA401CF8
:1008E00041F1000192185B411A4301D120F001004F
:1008F00010BD2DE9F04D92469B4611B1B1FA81F23F
:1009000002E0B0FA80F220329046FFF77BFF044607
:100910000F4640EA0A0041EA0B0153465A46084393
:1009200013D0114653EA010019D0C8F140025046D5
:10093000FFF777FF05460E46504659464246FFF7F9
:1009400061FF084305D0012004E020463946BDE898
:10095000F08D0020054346EAE0762C4337430A98A1
:100960006305E40AA0EB08000022FD0A44EA4754AC
:100970000A3002D500200146E9E701051019694156
:10098000DDE9084500196941BDE8F04DA2E770B501
:1009900021F0004303430CD0C1F30A550024D5EBEA
:1009A000040564EB0403D617AD1AB34102DB002043
:1009B000014670BD201841EB025170BD064C074D39
:1009C00006E0E06840F0010394E80700984710341F
:1009D000AC42F6D3FFF7EEFB40A5000860A5000887
:1009E00070B58C1810F8015B15F0070301D110F8F1
:1009F000013B2A1106D110F8012B03E010F8016B1E
:100A000001F8016B5B1EF9D12B0705D40023521EA0
:100A10000DD401F8013BFAE710F8013BCB1A921C08
:100A200003E013F8015B01F8015B521EF9D5A14206
:100A3000D8D3002070BD000070B505460C460026D6
:100A40000DB1022C00D870BDA11E064802882846B0
:100A500002F094FA0646A01E2E54310A601E295454
:100A600000BFF0E7222F002070B505460C46002697
:100A70000DB1022C00D870BD611E054802782846D1
:100A800002F096FA0646601E2E5400BFF3E70000FF
:100A9000202F002010B54FF4A06005F05DFD07F099
:100AA00097F807F0C3F800F01DF800F0CDF807F054
:100AB00011FB07F0A1FD4FF4E13009F0BFF907F099
:100AC0003DFE06F029F807F02DFF044801F034FF41
:100AD000024803F003F909F03DF910BDD83A0020AF
:100AE00000BFFEE700B589B00121082006F006F935
:100AF0000121480606F012F9092200213A4802F0C5
:100B0000B5F909220121384802F0B0F90320079015
:100B100002208DF8200007A9334802F05FF933481E
:100B200000F0B6F904A800F0EEFB00208DF81600E6
:100B30008DF817008DF818008DF819008DF81A003F
:100B400001208DF81B0000208DF812008DF8130095
:100B500008208DF8140003208DF81500ADF8100062
:100B600004A9224800F0CDFA00208DF80A008DF883
:100B70000B0001208DF80C000020ADF80000ADF84E
:100B80000200ADF80400ADF80600ADF80800012041
:100B90008DF80D00684600F097F9012202211348F4
:100BA00000F0A6FA01221146104800F0A1FA142024
:100BB0008DF8200002208DF8210001208DF8220000
:100BC0008DF8230008A805F08BFC13208DF8200079
:100BD00001208DF821008DF822008DF8230008A84F
:100BE00005F07EFC09B000BD000C0240006400402E
:100BF00000B585B002210B4800F0EAF978B1022176
:100C0000084800F0F1F80849064800F0D1F86A46B3
:100C10000021044800F0FFFA684601F063FC05B0CB
:100C200000BD0000006400400800003210B5012142
:100C3000044800F0CDF918B10121024800F0D4F8C1
:100C400010BD00000064004000B589B00121022001
:100C500006F054F80121480606F060F801218806E4
:100C600006F05CF809220C213C4802F0FFF809224A
:100C70000D213A4802F0FAF84FF440500790022054
:100C80008DF8200007A9354802F0A8F8344800F094
:100C9000FFF804A800F037FB00208DF816008DF84F
:100CA00017008DF818008DF819008DF81A00012032
:100CB0008DF81B0000208DF812008DF8130008201D
:100CC0008DF8140003208DF81500ADF8100004A96C
:100CD000234800F016FA0E208DF80A0000208DF847
:100CE0000B0001208DF80C000020ADF80000ADF8DD
:100CF0000200ADF80400ADF80600ADF808000120D0
:100D00008DF80D00684600F0DFF80122022114483A
:100D100000F0EEF901221146114800F0E9F94020F7
:100D20008DF8200001208DF8210002208DF822008E
:100D300001208DF8230008A805F0D2FB3F208DF894
:100D4000200002208DF821008DF8220001208DF86E
:100D5000230008A805F0C4FB09B000BD0004024050
:100D60000068004000B585B00221094800F030F964
:100D700058B10221064800F037F86A4600210448BD
:100D800000F049FA684601F0B7F905B000BD00006F
:100D90000068004010B50121044800F019F918B1AD
:100DA0000121024800F020F810BD0000006800405A
:100DB00000220C4B994202D10023836111E0C1F360
:100DC000130201F000730BB1C2600AE001F080630E
:100DD0000BB1026105E001F000630BB1826000E03D
:100DE000426070477000F030B1F5007F3AD00FDC00
:100DF000202928D006DC01291CD004291DD008296F
:100E000040D11DE0402921D0B1F5807F3AD126E0C4
:100E1000B1F5004F31D006DCB1F5806F25D0B1F5CA
:100E2000006F2FD124E0B1F5803F12D0B1F5003F23
:100E300028D111E0154A826025E00822C26022E034
:100E40001022C2601FE0082202611CE01022026131
:100E500019E00822426016E01022426013E00422EA
:100E6000426010E0042242600DE0042242600AE089
:100E7000002282610422426005E000228261042295
:100E8000426000E000BF00BF7047000001010100A8
:100E900010B504460B48844209D10121480605F0EB
:100EA0004DFF00214FF0007005F048FF08E00121E0
:100EB000880605F043FF00214FF0806005F03EFFFB
:100EC00010BD00000064004010B50021837A0122AB
:100ED00002FA03F13D4A126842F001023B4B1A60EC
:100EE0003A4A1C3212688A43384B1C331A60027B20
:100EF000CAB9364A0C3212688A43344B0C331A6032
:100F00004288C38842EA0343304A4032847A42F836
:100F100034300288838842EA03432C4A4032847A80
:100F200002EBC4025360027B012A19D1274A0C321A
:100F300012680A43254B0C331A604288038842EA40
:100F40000343224A4032847A42F83430C28883888C
:100F500042EA03431D4A4032847A02EBC4025360E2
:100F6000C27A3AB9194A121D12688A43174B1B1DDF
:100F70001A6006E0154A121D12680A43134B1B1D26
:100F80001A60028932B9114A143212688A430F4B2F
:100F900014331A600289012A06D10C4A14321268ED
:100FA0000A430A4B14331A60427B012A06D1074ACE
:100FB0001C3212680A43054B1C331A60034A12683C
:100FC00022F00102014B1A6010BD000000660040D3
:100FD00070B504460D46002660692840002871D08F
:100FE000B5F5807F5CD010DC082D35D006DC012DF6
:100FF00020D0022D24D0042D72D127E0102D31D025
:10100000202D35D0402D6BD138E0B5F5004F60D0A4
:1010100009DCB5F5007F49D0B5F5806F4CD0B5F54A
:10102000006F5DD14FE0B5F5803F2DD0B5F5003FA5
:1010300056D12FE0A0682D4901F06EFB064651E025
:10104000E068032101F068FB06464BE0E0680821F8
:1010500001F062FB064645E0E068102101F05CFB10
:1010600006463FE02069032101F056FB064639E0C1
:101070002069082101F050FB064633E02069102169
:1010800001F04AFB06462DE06068082101F044FBB0
:10109000064627E06068102101F03EFB064621E08D
:1010A000A069012101F038FB06461BE0A06902217E
:1010B00001F032FB064615E0A069042101F02CFB8B
:1010C00006460FE00FE0A069702101F025FB0646FF
:1010D00008E06068042101F01FFB064602E0FFE71C
:1010E000002600BF00E00026304670BD010101006F
:1010F0001AB143690B43436102E043698B43436187
:10110000704730B5024600200023146824F0020422
:101110001460146844F00104146000E05B1C54681F
:1011200004F001041CB94FF6FF74A342F6D15468D1
:1011300004F001040CB900206CE08C79012C04D17E
:10114000146844F08004146003E0146824F0800400
:101150001460CC79012C04D1146844F0400414606C
:1011600003E0146824F0400414600C7A012C04D1CC
:10117000146844F02004146003E0146824F0200490
:1011800014604C7A012C04D1146844F010041460EB
:1011900003E0146824F0100414608C7A012C04D14C
:1011A000146844F00804146003E0146824F0080490
:1011B0001460CC7A012C04D1146844F00404146047
:1011C00003E0146824F0040414608C78A407CD783C
:1011D00044EA05640D7944EA05444D7944EA05542E
:1011E0000D886D1E2C43D461146824F00104146032
:1011F000002300E05B1C546804F001041CB14FF6AE
:10120000FF74A342F6D1546804F001040CB100202D
:1012100000E0012030BD10B500F5D87303EB0113D9
:101220001B6803F004031372137A53B900F5D873E3
:1012300003EB01131B6840F2FF7404EA535313607D
:1012400009E000F5D87303EB01131B686FF06044ED
:1012500004EAD303536000F5D87303EB01131B6852
:1012600003F00203537200F5D87303EB01135B68BC
:1012700003F00F03937200F5D87303EB01135B685F
:101280001B0AD37400F5D87303EB01139B68D37268
:1012900000F5D87303EB01139B681C0A147300F567
:1012A000D87303EB01139B681C0C547300F5D873BF
:1012B00003EB01139B681B0E937300F5D87303EBCC
:1012C0000113DB68D37300F5D87303EB0113DB68FC
:1012D0001C0A147400F5D87303EB0113DB681C0CB3
:1012E000547400F5D87303EB0113DB681B0E937481
:1012F00021B9C36843F02003C36003E0036943F0EE
:101300002003036110BD00218171C171017241721E
:101310008172C1728170C17003210171022141711A
:1013200001210180704710B502460020936803F048
:101330008063B3F1806F00D110E0936803F0006325
:10134000B3F1006F01D1012008E0936803F08053EE
:10135000B3F1805F01D1022000E00420042874D0A2
:1013600002F5C07303EB00131B6803F0010402F5E0
:10137000C07303EB00131C600B7A7BB94B7A0C88AB
:1013800043EA445302F5C07404EB00142468234379
:1013900002F5C07404EB0014236010E00B7A4C6873
:1013A00043EAC4034C7A234302F5C07404EB0014EF
:1013B0002468234302F5C07404EB001423608B7A85
:1013C00003F00F038B7202F5C07303EB00135B682D
:1013D00023F00F0402F5C07303EB00135C6002F509
:1013E000C07303EB00135B688C7A234302F5C0746F
:1013F00004EB001463608B7B1C064B7B44EA0344C4
:101400000B7B44EA0323CC7A234302F5C07404EB3C
:101410000014A3608B7C1C064B7C44EA03440B7CC9
:1014200044EA0323CC7B234302F5C07404EB00148D
:10143000E36002F5C07303EB00131B6843F0010483
:1014400002F5C07303EB00131C6010BD00B52DED59
:101450000C8B81B001F08CFD38B101F089FD0228C0
:1014600003D001F085FD032814D19FEDFE0AFE484C
:1014700080ED000A9FEDFB0AFC4880ED000A9FED1D
:10148000F90AFB4880ED000A9FEDF60AF94880ED65
:10149000000A09E301F06CFD012864D19FEDF10A17
:1014A000F54880ED000AF548B0F9040010F5487FD2
:1014B00004DC4FF6E040F149888009E0EF48B0F9DC
:1014C0000400B0F5487F03DB4FF44870EB49888097
:1014D000EA48B0F900004042E849B1F90210401A68
:1014E000E649B1F90410084400EE100AB8EEC00A4B
:1014F000DD4880ED000AE148B0F90000DF49B1F9AC
:101500000210401ADD49B1F90410084400EE100A37
:10151000B8EEC00AD54880ED000AD848B0F90000FE
:10152000D649B1F902100844D449B1F9041008446D
:1015300000EE100AB8EEC00ACD4880ED000ACF4890
:10154000B0F900004042CD49B1F902100844CB493E
:10155000B1F90410084400EE100AB8EEC00AC548FC
:1015600080ED000AA0E201F003FD042814D19FEDF4
:10157000BD0ABD4880ED000A9FEDBA0ABB4880ED68
:10158000000A9FEDB80ABA4880ED000A9FEDB50A3F
:10159000B84880ED000A87E201F0EAFC0628E1D1B4
:1015A000B74890ED000AB5EEC00AF1EE10FA11D17D
:1015B000B1480068FFF7C7F841EC190B9FEDB10B7C
:1015C00053EC102BFEF7FAFE41EC180BFFF7FEF878
:1015D000A9490860AA4890ED000AF7EE000AB4EEA7
:1015E000600AF1EE10FA11D1A3480068FFF7ABF8DA
:1015F00041EC190B9FEDA30B53EC102BFEF77FFF73
:1016000041EC180BFFF7E2F89B4908609C4890ED0D
:10161000000AF0EE000AB4EE600AF1EE10FA11D101
:1016200095480068FFF78FF841EC190B9FED950B7B
:1016300053EC102BFEF7C2FE41EC180BFFF7C6F877
:101640008D4908608C4890ED000AF0EE000AB4EE77
:10165000600AF1EE10FA04D1B7EE000A884880ED76
:10166000000A854890ED000AB5EEC00AF1EE10FAC6
:1016700004D1B0EE000A824880ED000A7E4800687E
:10168000FFF761F841EC1C0B9FED800B53EC102B26
:10169000FEF73BFF41EC1B0BB0EE4B0AF0EE6B0A82
:1016A00007F002FDB0EE40AAF0EE60AA9FED790BC4
:1016B00053EC102B51EC1A0BFEF727FF41EC190BE2
:1016C0009FED760B53EC102BFEF778FE41EC180BD8
:1016D000FFF77CF873490860734890ED121BB0EE79
:1016E000410AF0EE610A51EC100BFFF76FF86D49FB
:1016F00048600846816C88476A4890ED0D0ABDEE47
:10170000C00A10EE100A00B25C4988800846B0F9A1
:10171000040010F5487F03DC4FF6E040888009E0C4
:101720005648B0F90400B0F5487F03DB4FF4487029
:101730005249888001F016FC01287DD14F49B1F94A
:101740000400FEF7C3FF41EC1B0B9FED580B53EC5D
:10175000102BFEF7DAFE41EC190B4849B1F90010E5
:101760004942464AB2F90220881AFEF7AFFF41EC1F
:101770001A0B53EC192BFEF721FE41EC180BFFF767
:1017800025F8394908603D49B1F90400FEF79EFF8C
:1017900041EC1B0B9FED450B53EC102BFEF7B5FEF8
:1017A00041EC190B3549B1F90010344AB2F9022065
:1017B000881AFEF78BFF41EC1A0B53EC192BFEF73E
:1017C000FDFD41EC180BFFF701F8284908602B4993
:1017D000B1F90400FEF77AFF41EC1B0B9FED330BD0
:1017E00053EC102BFEF791FE41EC190B2349B1F994
:1017F0000010224AB2F902208818FEF767FF41EC78
:101800001A0B53EC192BFEF7D9FD41EC180BFEF720
:10181000DDFF174908601949B1F90400FEF756FFCA
:1018200041EC1B0B9FED230B53EC102BFEF76DFED1
:1018300041EC190B114900E042E0B1F900104942B6
:101840000E4AB2F902208818FEF740FF41EC1A0B4D
:1018500053EC192BFEF7B2FD41EC180BFEF7B6FF67
:1018600004492BE000000000CC0E0020881100206D
:101870004414002000170020142D0020D42D002037
:10188000182D00207B14AE47E17A743F4AD8124DE0
:10189000FB2109400000000000406F4000000000F4
:1018A00000804640100C0020983600200000000008
:1018B0000000E03F333333333333E33F0860F3E07A
:1018C000FE49B1F90400FEF701FF41EC1B0B1FEDCF
:1018D000090B53EC102BFEF718FE41EC190BF749DE
:1018E000B1F90200FEF7F2FE41EC1D0B9FEDF40B87
:1018F00053EC102BFEF709FE41EC1B0BEF49B1F93D
:101900000000FEF7E3FE41EC1D0B9FEDEF0B53ECE7
:10191000102BFEF7FAFD41EC1C0B53EC1B2BFEF7D2
:10192000EEFD41EC1A0B53EC192BFEF747FD41EC91
:10193000180BFEF74BFFE6490860E049B1F90400D7
:10194000FEF7C4FE41EC190B1FED280B53EC102BD6
:10195000FEF7DBFD41EC1B0BD849B1F90200FEF7A5
:10196000B5FE41EC1D0B9FEDD60B53EC102BFEF793
:10197000CCFD41EC190BD149B1F90000FEF7A6FEF0
:1019800041EC1D0B9FEDCE0B53EC102BFEF7BDFD74
:1019900041EC1A0B53EC192BFEF7B1FD41EC1C0B7B
:1019A00053EC1B2BFEF70AFD41EC180BFEF70EFF64
:1019B000C8490860C149B1F90400FEF787FE41EC4F
:1019C0001B0B1FED460B53EC102BFEF79EFD41EC5D
:1019D0001A0BBA49B1F90200FEF778FE41EC1D0B73
:1019E0009FEDB70B53EC102BFEF78FFD41EC1B0B5B
:1019F000B249B1F90000FEF769FE41EC1D0B9FED05
:101A0000B00B53EC102BFEF780FD41EC1C0B53EC9C
:101A10001B2BFEF7D3FC41EC180B53EC1A2BFEF7F3
:101A2000CDFC41EC190BFEF7D1FEAB490860A34990
:101A3000B1F90400FEF74AFE41EC180B1FED650BEF
:101A400053EC102BFEF761FD41EC1A0B9B49B1F9E9
:101A50000200FEF73BFE41EC1D0B9FED990B53EC92
:101A6000102BFEF752FD41EC1C0B9449B1F900001C
:101A7000FEF72CFE41EC1D0B9FED930B53EC102B4E
:101A8000FEF743FD41EC180B53EC1C2BFEF796FCC4
:101A900041EC1B0B53EC1A2BFEF790FC41EC190B9D
:101AA000FEF794FE8D4908608D4890ED0E0A884837
:101AB00080ED010A8B4890ED0E0A864880ED010A00
:101AC000894890ED0E0A844880ED010A874890ED20
:101AD0000E0A824880ED010A85480078E8BB7C4800
:101AE00090ED000ADFED830AB4EEE00AF1EE10FAA1
:101AF00004D89FED800A80ED000A0DE0744890ED57
:101B0000000ADFED7D0AB4EEE00AF1EE10FA03DB25
:101B10009FED790A80ED000A6E4890ED000ADFED36
:101B2000750AB4EEE00AF1EE10FA04D89FED710ADE
:101B300080ED000A0DE0674890ED000ADFED6E0AC7
:101B4000B4EEE00AF1EE10FA03DB9FED6B0A80EDD4
:101B5000000A614890ED000A00E037E0DFED650A19
:101B6000B4EEE00AF1EE10FA04D89FED620A80EDBF
:101B7000000A0DE0584890ED000ADFED5F0AB4EE70
:101B8000E00AF1EE10FA03DB9FED5B0A80ED000A3C
:101B9000524890ED000ADFED570AB4EEE00AF1EE8C
:101BA00010FA04D89FED530A80ED000A82E04B48FA
:101BB00090ED000ADFED500AB4EEE00AF1EE10FA03
:101BC00078DB9FED4D0A80ED000A73E0404890ED10
:101BD000000ADFED4A0AB4EEE00AF1EE10FA04D88A
:101BE0009FED460A80ED000A0DE0394890ED000AAD
:101BF000DFED430AB4EEE00AF1EE10FA03DB9FEDED
:101C0000400A80ED000A334890ED000ADFED3B0A00
:101C1000B4EEE00AF1EE10FA04D89FED380A80ED38
:101C2000000A0DE02B4890ED000ADFED350AB4EE16
:101C3000E00AF1EE10FA03DB9FED310A80ED000AB5
:101C4000254890ED000ADFED2D0AB4EEE00AF1EE32
:101C500010FA04D89FED290A80ED000A0DE01E4815
:101C600090ED000ADFED260AB4EEE00AF1EE10FA7C
:101C700003DB9FED230A80ED000A184890ED000A6F
:101C8000DFED1E0AB4EEE00AF1EE10FA04D89FED83
:101C90001B0A80ED000A0DE0104890ED000ADFED10
:101CA000180AB4EEE00AF1EE10FA03DB9FED140A15
:101CB00080ED000A0648816C884723E0D42D00207F
:101CC0009A9999999999E93F9A9999999999E9BF16
:101CD000CC0E0020881100204414002000170020A2
:101CE0003835002090350020E835002040360020AF
:101CF000C52D00200000AAC30000AA430000D7C3DE
:101D00000000D7434648816C88474648816C884725
:101D10004548816C884701F02BF9032802D001F077
:101D200027F940B9002003460246014600903F488B
:101D300005F0AAFD70E001F015F9012838D13C4802
:101D40000078012834D1384890ED0D0AF7EE000AEA
:101D500020EE200ABDEEC00A10EE100A00B200907C
:101D6000304890ED0D0AF7EE000A20EE200ABDEE95
:101D7000C00A10EE100A03B2294890ED0D0AF7EEE2
:101D8000000A20EE200ABDEEC00A10EE100A02B2D0
:101D9000284890ED0D0AF7EE000A20EE200ABDEE6D
:101DA000C00A10EE100A01B2204805F06DFD33E0C4
:101DB0001D4890ED0D0AF0EE040A20EE200ABDEE5B
:101DC000C00A10EE100A00B20090164890ED0D0AFD
:101DD000F0EE040A20EE200ABDEEC00A10EE100A52
:101DE00003B20F4890ED0D0AF0EE040A20EE200A2F
:101DF000BDEEC00A10EE100A02B20E4890ED0D0AB8
:101E0000F0EE040A20EE200ABDEEC00A10EE100A21
:101E100001B2064805F038FD01B0BDEC0C8B00BDE9
:101E200088110020441400200017002000640040A6
:101E300064000020CC0E00207047000070B52DED2E
:101E4000088B04462078522877D160784D2874D1C9
:101E5000A078412871D0012096490870A078E178D7
:101E600040EA012000B2944908802079617940EA73
:101E7000012000B290494880A07988800846B0F9D6
:101E8000000000EE100AF8EEC08A9FED8C0AC8EE42
:101E9000800A8B48C0ED000A0846B0F9020000EE47
:101EA000100AB8EEC08A9FED850AC8EE000A854880
:101EB000C0ED000A824890ED000A834880ED000AD8
:101EC0000068FEF740FC41EC1A0BB0EE4A0AF0EE57
:101ED0006A0A07F075F8B0EE409AF0EE609A9FED4E
:101EE0007B0B53EC102B51EC190BFEF757FC04D273
:101EF0009FED780A744880ED000A734890ED000A5F
:101F0000B5EEC00AF1EE10FA04D090ED000A724866
:101F100080ED000A704890ED000A6B4880ED000AE1
:101F20006548B0F9040000EB8000400000EE100AA4
:101F3000B8EEC00A694880ED000A207852281ED108
:101F400060784D281BD1A078412818D1002059492C
:101F5000087059490880488088809FED5E0A5A4879
:101F600080ED000A9FED5B0A564880ED000A9FED68
:101F7000590A5A4880ED000A002059490860207823
:101F800042287CD160784F2879D1A078412878D038
:101F9000A078E17840EA012000B247490880207922
:101FA000617940EA012000B243494880A0798880E5
:101FB00001204B4908604048B0F9000000EE100ACB
:101FC000B8EEC00AF0EE408A9FED3C0AC8EE800AE7
:101FD0003B48C0ED000AB1EE480ADFED380A80EE5A
:101FE000201A404880ED001A3348B0F9020000EE94
:101FF000100AB8EEC00AB0EE408A9FED300AC8EE73
:10200000000AB1EE600A10EE105A2846FEF79BFB5C
:1020100041EC1B0B9FED340B53EC102BFEF775FAC4
:1020200041EC1A0B9FED320B53EC102BFEF767FAC5
:1020300041EC190BFEF7CAFB22490860204890EDDD
:10204000000AB1EE400A204880ED000A90ED000A37
:10205000B5EEC00AF1EE10FA04D090ED000A1E4869
:1020600080ED000A1448B0F9040000EB8000400045
:1020700000EE100AB8EEC00A184880ED000A16E01B
:10208000FFE700200B4908700B49088048808880D2
:102090000D4890ED000A80ED000A0A4890ED000A14
:1020A00080ED000A0D4890ED000A80ED000ABDECBD
:1020B000088B70BD640000206A0000200000C84248
:1020C00080000020300000203400002000000000CC
:1020D0000000494000000000540000206000002083
:1020E000642D00203C000020666666666666E63F5A
:1020F0007B14AE47E17AC43F10B50446E948006856
:10210000401CE849086040F202422068811A90426F
:1021100074D008DCA0F2012060B1012818D0B0F51D
:10212000007F6CD19BE001296AD0022969D0032984
:10213000F7D11BE0DB480068322804D82146DA4892
:1021400000F0C2FE03E02146D74801F0A1FEA4E161
:10215000D4480068322804D82146D44800F0B4FEA0
:1021600003E02146D14801F093FE96E1E07AD049A0
:10217000097860F30511CE480170E07A0109CC4876
:10218000007861F34300CA490870607BA1F86C00D5
:10219000A07B497860F30401C5484170A07B4109E8
:1021A000C348407861F34710C1494870E07B097823
:1021B00060F30001BE4801700078C0F342000528BA
:1021C00026D2DFE800F003090F151F009FEDB90AC2
:1021D000B74880ED1C0A1BE09FEDB70AB44880EDBC
:1021E0001C0A15E09FEDB50AB14880ED1C0A0FE00E
:1021F0009FEDB30AAE4880ED1C0A09E0C8E04BE150
:102200000BE140E19FEDAF0AA94880ED1C0A00BF39
:1022100000BFA7480078C0F3011030B101280AD0F0
:1022200002280ED0032818D111E09FEDA70AA0487C
:1022300080ED1D0A11E09FEDA50A9D4880ED1D0A65
:102240000BE09FEDA30A9A4880ED1D0A05E09FED83
:10225000A10A974880ED1D0A00BF00BF1DE1944808
:10226000007800F00100D0B3A07A062848D1904849
:10227000D4F80B10C161B4F80F100184B0F91C0040
:1022800000EE100AB8EEC00ADFED930A20EE200A35
:102290009FED921AC0EE010A9FED910A20EE800A8E
:1022A000834880ED090AB0F91E0000EE100AB8EE6E
:1022B000C00ADFED890A60EE200A9FED881A80EEE1
:1022C000810ADFED870A20EE200A794880ED0A0AAC
:1022D000B0F9200000EE100AB8EEC00A00E00FE0EE
:1022E000DFED7D0A20EE200A9FED7C1AC0EE010A88
:1022F0009FED7B0A20EE800A6D4880ED0B0A46E0D8
:102300006B48007800F00100F0BBA07A08283ED1AD
:102310006748801CD4F80B100160D4F80F1041609E
:10232000801EB0F9020000EE100AB8EEC00ADFED20
:102330006A0A20EE200A5E4880ED030AB0F9040024
:1023400000EE100AB8EEC00ADFED630A20EE200AA4
:10235000574880ED040AB0F9060000EE100AB8EE06
:10236000C00ADFED5D0A20EE200A514880ED050A23
:10237000B0F9080000EE100AB8EEC00ADFED560A08
:1023800020EE200A4A4800E001E080ED060A84E0E1
:102390004748D4F80B10C163B4F80F10A0F84010F0
:1023A000B0F93C0000EE100AB8EEC00A4048D0ED8B
:1023B0001C0A20EE200A80ED140AB0F93E0000EE5F
:1023C000100AB8EEC00A3A48D0ED1C0A20EE200AE6
:1023D00080ED150AB0F9400000EE100AB8EEC00A10
:1023E0003348D0ED1C0A20EE200A80ED160A607CEE
:1023F000C100A07C41EA60102D49A1F86A0008469E
:10240000B0F86A00B0F5806F06DB0846B0F86A00E5
:10241000A0F50060A1F86A003FE025484230D4F8FA
:102420000B100160B4F80F1081804238B0F94200FF
:1024300000EE100AB8EEC00A1D48D0ED1D0A20EECD
:10244000200A80ED170AB0F9440000EE100AB8EE39
:10245000C00A1748D0ED1D0A20EE200A80ED180AA8
:10246000B0F9460000EE100AB8EEC00A1048D0EDF0
:102470001D0A20EE200A80ED190A0146B4F8110069
:10248000A1F8680009E00A48D4F80B108164B4F898
:102490000F10A0F84C1000E000BF00BF07F006FCD2
:1024A00010BD00006C2D0020A0370020F837002060
:1024B0000039002058A08B3A58A00B3A58A08B390D
:1024C00058A00B3958A08B38E7416B3A3333EB3ABD
:1024D00033336B3B3333EB3B17B7D138DB0F49401A
:1024E0000000344310B5044675480068401C744928
:1024F00008602068A0F2012007286ED2DFE800F013
:1025000004182C40548FC9006D480068322804D844
:1025100021466C4800F0D8FC03E02146694801F0F0
:10252000B7FC6948008840F0010067490880C5E0B1
:1025300063480068322804D82146644800F0C4FC8F
:1025400003E02146614801F0A3FC5F48008840F0A9
:1025500002005D490880B1E059480068322804D87B
:1025600021465B4800F0B0FC03E02146584801F0EA
:102570008FFC5548008840F00400534908809DE0D6
:102580004F480068322804D82146524800F09CFC8D
:1025900003E021464F4801F07BFC4B48008840F0A7
:1025A00008004949088089E045480068322826D259
:1025B0002146494800F088FC474840694749B1F93D
:1025C0000010401AB0F5805F08DD4448008800F52F
:1025D000005000B2414908801AE06EE03E48406970
:1025E0003E49B1F90010401A10F5805F10DA3B48FF
:1025F0000088A0F5005000B23849088008E037484C
:10260000B0F90000344948612146334801F0DEFC4E
:102610002D48008840F010002B4908804EE02848E3
:102620000068322825D221462D4800F04DFC2C4868
:1026300040692C49B1F90010401AB0F5805F07DD00
:102640002848008800F5005000B22649088019E0AB
:10265000234840692349B1F90010401A10F5805F02
:1026600010DA20480088A0F5005000B21D4908800B
:1026700008E01C48B0F90000194948612146184893
:1026800001F04EFD1048008840F020000E490880FF
:1026900014E00B480068322804D82146124800F0A4
:1026A00013FC03E02146104801F068FB064800884F
:1026B00040F040000449088000E000BF00BF10BDAA
:1026C000682D002038350020F02E002090350020A5
:1026D000E83500204036002098360020722D00207A
:1026E000F0360020702D00204837002010B5064835
:1026F000C16C88470548C16C88470548C16C88474C
:102700000448C16C884710BDCC0E00208811002001
:1027100044140020001700200246002002EA0103B2
:102720000BB1012000E0002070470146002000BFEF
:1027300003E000220A54401C401C0928F9D37047CA
:1027400010B545480068401C43490860434800688C
:10275000401C4249086006F0B9FA06F029FB07F070
:1027600043FB00F0E3FA05F0F9F804F0A7FF3C485A
:10277000008820F070003A4908803748007800F05F
:10278000030038B9FEF762FE3548008820F00F00DC
:102790003349088005F040F907F0F4FB1322314972
:1027A00040F2013007F01EF92B480068C821B0FB49
:1027B000F1F201FB120008B905F02CFCB2EE040A9C
:1027C000294880ED040AB0EE000A80ED060A9FED6C
:1027D000270A80ED0E0AB2EE040A80ED000A2448B2
:1027E0000089002803DC00202149088106E02048F8
:1027F0000089142802DB14201D4908811C48008927
:1028000000EE100AB8EE400A174880ED010A816C0C
:102810008847154890ED0D0AB1EE400A80ED0D0A8B
:1028200090ED0D0ADFED130AB4EEE00AF1EE10FAB6
:1028300004D89FED100A80ED0D0A0BE00A4890EDD8
:102840000D0AB5EEC00AF1EE10FA03DB9FED0A0A9D
:1028500080ED0D0A10BD0000B00000201C0000201B
:10286000F02E0020943A0020341F00200000C842BF
:102870001A3A0020000096C30000000010B50020A6
:102880001E4908601E484FF4FA61C26990471D480E
:102890004FF4FA61C26990471B484FF4FA61C2696C
:1028A00090471748816988471648816988471648C4
:1028B000816988471548C16C88471548C16C8847AD
:1028C0001448C16C88471448C16C88471348C16CD0
:1028D000134888471248C16C88471248C16C884722
:1028E0001148C16C88471148C16C88471048C16CB9
:1028F00088471048C16C884710BD0000B000002018
:10290000B4000020D8000020FC000020200100209E
:10291000DC0300209806002054090020BC19002088
:10292000781C0020100C0020CC0E00208811002004
:1029300044140020001700200221416001210160A1
:10294000002181607047000010B50549054800F07E
:1029500003F918B10249034800F006F810BD000061
:1029600000002020A06002400246094B9A4201D29A
:10297000084801E00648103801F000531BB1064B2F
:102980000B40C36002E0044B0B40836070470000C3
:1029900010640240006002407D0F7D0F21B102688B
:1029A00042F00102026003E0026822F001020260CC
:1029B00070470000016821F0010101600021016001
:1029C00041608160C1600161212141614A498842C1
:1029D00004D13D21484A103A91608CE046491831B3
:1029E000884205D14FF47461434A103A916082E005
:1029F00041493031884205D14FF474113E4A103AB2
:102A0000916078E03C494831884205D14FF07461CB
:102A1000394A103A91606EE037496031884204D1FA
:102A20003649354A103AD16065E0334978318842F9
:102A300004D13349304A103AD1605CE02E499031DC
:102A4000884204D12F492C4A103AD16053E02A49D8
:102A5000A831884205D14FF03D51274A103AD16044
:102A600049E02949884204D13D21274A083A1160AA
:102A700041E025491831884205D14FF47461224A5A
:102A8000083A116037E020493031884205D14FF4CF
:102A900074111D4A083A11602DE01B4948318842E3
:102AA00005D14FF07461184A083A116023E01649C5
:102AB0006031884204D11149134A121F11601AE093
:102AC00011497831884204D10D490F4A121F116013
:102AD00011E00D499031884204D10A490A4A121F77
:102AE000116008E00849A831884204D14FF03D51F7
:102AF000054A121F11607047106002403D0000201F
:102B0000400F002000003D201064024021B1026807
:102B100042F48022026003E0026822F48022026014
:102B2000704722B1036843F40023036003E00368A5
:102B300023F400230360016170470146486880B2B6
:102B40007047014600200A6802F400220AB1012001
:102B500000E000207047000030B503460A46002020
:102B600000240B4DAB4201D20A4901E0084910395B
:102B700002F000550DB14C6800E00C68064D2C4089
:102B800004EA02050DB1012000E0002030BD000084
:102B900010640240006002407D0F7D0F10B50022DE
:102BA0000268134B1A40CC680B6823434C692343DB
:102BB0008C692343CC6923430C6A23434C6A234327
:102BC0008C6A23434C6B23438C6B23431A43026070
:102BD000426922F00702D1E90B3423431A434261D0
:102BE0000B6943604B6883608B68C36010BD000055
:102BF0003F801CF00021016041608160C160016183
:102C000041618161C161016241628162C1620163AE
:102C100041638163704700000F48408850B90E48F7
:102C20000088012806D10C48C088401C0A49C88089
:102C3000012088800849C88800EBD0714910A0EBBA
:102C40004101012903D101200449087002E000205C
:102C50000249087070470000902D00205B2D002075
:102C60007047000010B52A48408840B928480088BD
:102C7000012804D12648C088401C2549C880244822
:102C8000C088032190FBF1F201FB120001280CD156
:102C9000022020490870DFED200A9FED1F0A06F090
:102CA000FDFE02201D49087030E01948C08803214C
:102CB00090FBF1F201FB120002280CD1F3EE0E0A98
:102CC000B3EE0E0A06F0EAFE012012490870022057
:102CD000124908701AE01248007801280AD11148F8
:102CE0000068012806D103200A49087002200B4918
:102CF00008700BE0002007490870DFED0B0A9FED1C
:102D00000A0A06F0CBFE00200449087010BD00003E
:102D1000A02D0020C62D002000007042DF2E0020D4
:102D20005B2D0020642D00200000000010B500F095
:102D300055F9234890ED0D0AF3EE040A80EE201AAF
:102D4000204880ED001A2048B0F90400142190FBBF
:102D5000F1F000EE100AB8EEC00A1A4880ED010A40
:102D6000816C88471848B0F9040000EE100AB8EEEC
:102D7000C00A164880ED000A154890ED0D0AF3EEE2
:102D80000E0A80EE201A134880ED001A0E48B0F9A2
:102D900002001E2190FBF1F000EE100AB8EEC00A0E
:102DA0000C4880ED010A816C88470748B0F90200A1
:102DB00000EE100AB8EEC00A074880ED000A10BD08
:102DC000980600205409002090000020302D00209B
:102DD00020010020DC030020342D0020F0B50A463D
:102DE00000210023002400BF3DE0012505FA01F386
:102DF000156805EA03049C4234D105684F00032698
:102E0000BE40B543056015794E00B54006683543B0
:102E100005601579012D02D01579022D16D185682E
:102E20004F000326BE40B543856055794E00B5403E
:102E3000866835438560456801268E40B543456008
:102E4000456896798E40B6B235434560C5684F00F7
:102E50000326BE40B543C560D5794E00B540C6686F
:102E60003543C560491C1029BFD3F0BDF0B5002320
:102E700000244D07ED0E02FA05F3CE1000F12005F7
:102E800055F826504E07F70E0F26BE40B543CF101B
:102E900000F1200646F82750CE1000F1200555F825
:102EA000265045EA0304CE1000F1200545F82640DF
:102EB000F0BD018370474FF6FF7101600021017181
:102EC00041718171C17170470A7BCB7A42EA03225A
:102ED000426142690260426982607047014800783D
:102EE00070470000DC2E002010B501700378047DCF
:102EF000021D1355037DD35C447D125D43EA8202BB
:102F00004270027D521C02F00F0282754378847D6C
:102F1000021D125D43EA02128270037D021DD35C22
:102F2000447D125D934205D10D4A1268521C0C4B30
:102F30001A6002E000220A4B1A60094A1268282A25
:102F400003D3037D021DD25CC270027D4275027DF7
:102F5000521C0275027D102A01D10022027510BD9B
:102F6000EC2E00200148007870470000DE2E002083
:102F70000148007870470000592D002030B5034605
:102F800013B94FF6FF7030BD09E013F8014B82EA28
:102F90000400C0B2054D35F8100080EA2222080076
:102FA000A1F10101F1D11046EDE70000A4A1000854
:102FB00030B5034605E013F8010B80EA020404482B
:102FC000025D0800A1F10101F5D1104630BD0000FD
:102FD000A4A000084FF08040406A704710B52DED66
:102FE0000C8BFD4890ED020AFC4880ED000A03F0CE
:102FF000BDFAFFF7BDFF30B101287CD002287BD09D
:1030000006287AD15EE39FEDF60AF64880ED040AC1
:103010009FEDF50A80ED050AB2EE040A80ED060A7E
:103020009FEDF20A80ED000AF1480169884710EE31
:10303000104A2046FDF787FB41EC190BED4890ED57
:10304000121BB0EE410AF0EE610A53EC102B51EC6A
:10305000190BFDF75AFA41EC180BFDF7B7FBE149E4
:1030600048600846816C8847DB4890ED020AE248D8
:1030700080ED020AD84890ED000AE04880ED000A91
:103080009FEDDA0ADE4880ED000ADE4801698847D4
:1030900010EE104A2046FDF756FB41EC190BDA48BA
:1030A00090ED101BB0EE410AF0EE610A53EC102BCC
:1030B00051EC190BFDF729FA41EC180BFDF786FBD3
:1030C000CF4948609FEDD10A084680ED040A9FED84
:1030D000C70A80ED050AB7EE000A80ED060A816C8A
:1030E00088479FEDCB0ACB4880ED040A9FEDBF0ACD
:1030F00080ED050A02E01FE105E0FDE3B0EE000A05
:1031000080ED060ADDE2C44890ED000AFBEE0E0AEF
:10311000B4EEE00AF1EE10FA04D8BBEE0E0A80ED30
:10312000000A0DE0BC4890ED000AF3EE0E0AB4EE82
:10313000E00AF1EE10FA03DBB3EE0E0A80ED000AAE
:10314000B54890ED000ADFEDB50A20EE200ADFED6C
:10315000B40A80EE201ABDEEC10A10EE104A2046D5
:10316000FDF7B4FA41EC1A0B9FEDAE0B53EC102BAC
:10317000FDF724F941EC180BA74890ED000ADFEDAC
:10318000A70A20EE200ADFEDA60A80EE201A11EE33
:10319000104A2046FDF7D7FA41EC190B53EC182BD7
:1031A000FDF7FCFA17D89C4890ED000ADFED9B0A6A
:1031B00020EE200ADFED9A0A80EE201ABDEEC10A49
:1031C00010EE100A401C00EE100AB8EEC00A854846
:1031D00080ED000A11E0904890ED000ADFED8F0AC3
:1031E00020EE200ADFED8E0A80EE201ABDEEC10A25
:1031F000B8EEC00A7B4880ED000A7E480068A0F661
:10320000D17000EE100AB8EEC00A764880ED010ACF
:10321000816C8847854890ED000AFBEE0B0AB4EEFE
:10322000E00AF1EE10FA04D8BBEE0B0A80ED000ABA
:103230000DE07E4890ED000AF3EE0B0AB4EEE00AD2
:10324000F1EE10FA03DBB3EE0B0A80ED000A7748CB
:1032500090ED000ADFED710A20EE200ADFED700A22
:1032600080EE201ABDEEC10A10EE104A2046FDF78E
:103270002DFA41EC1A0B9FED6B0B53EC102BFDF765
:103280009DF841EC180B694890ED000ADFED630AE8
:1032900020EE200ADFED620A80EE201A11EE104ABD
:1032A0002046FDF750FA41EC190B53EC182BFDF7B3
:1032B00075FA17D85D4890ED000ADFED580A20EE48
:1032C000200ADFED570A80EE201ABDEEC10A10EE8B
:1032D000100A401C00EE100AB8EEC00A484880ED03
:1032E000000A11E0514890ED000ADFED4C0A20EE93
:1032F000200ADFED4B0A80EE201ABDEEC10AB8EEBF
:10330000C00A3F4880ED000A3F490968A1F21770E2
:10331000FDF7DCF941EC190B9FED450B53EC102B3D
:10332000FDF7F3F841EC180BFDF750FA344948600B
:103330000846816C884700E3FFF714FE01284AD154
:103340003D48007801287DD100203C4908609FED70
:10335000270A244880ED000A2F480068FDF7F3F99A
:1033600041EC190B9FED2F0B53EC102BFDF7C7F819
:1033700041EC180BFDF72AFA1A4948600846816C9F
:1033800088479FED1A0A1E4880ED000A274890EDF5
:10339000000AB1EE400A1A4880ED010A816C8847A4
:1033A0009FED120A264880ED000A114801698847FE
:1033B00010EE104A2046FDF7C6F941EC190B0D48F6
:1033C00090ED101BB0EE410AF0EE610A53EC102BA9
:1033D00051EC190B37E0DAE02C3500202C2D0020C1
:1033E0000000484398060020CDCC4C3E0000000071
:1033F000D8000020983600209C3900200C2D002099
:1034000020010020B4000020F036002000008C4392
:1034100000004842DC030020340000200000004689
:103420000000B443000000000000E03F3000002036
:103430003231A715F0BCE63F64000020202D0020AB
:10344000100C002014E0FDF760F841EC180BFDF7BC
:10345000BDF9FE4948600846816C8847FB4890EDFD
:103460000D0ABDEEC00A10EE100A00B2F8498880BD
:10347000F8480078002872D1F7480068401CF649E7
:10348000086008460068012805D1F44890ED020A5A
:10349000F34880ED000AF24890ED000AF14880ED13
:1034A000000AEE4890ED020AEE4880ED010A816CB8
:1034B0008847E948006801280CD1EB4890ED101BC3
:1034C000B0EE410AF0EE610A51EC100BFDF77EF907
:1034D000E6490860E54890ED000AE54880ED000AFD
:1034E000E14890ED101BB0EE410AF0EE610A51EC9C
:1034F000100BFDF76BF9DE4948600846816C884780
:103500001FED460AD14880ED000ADA480169884774
:1035100010EE104A2046FDF716F941EC190BD6487B
:1035200090ED101BB0EE410AF0EE610A53EC102B47
:1035300051EC190BFCF7E9FF41EC180BFDF746F9CC
:10354000C24948600846816C8847C04890ED0D0A22
:10355000BDEEC00A10EE100A00B2BD498880BF4817
:1035600090ED020AC548D0ED020A30EE600A80ED07
:10357000010ABD4890ED101BB0EE410AF0EE610A61
:1035800051EC100BFDF722F9BC49086099E00020CE
:10359000B1490860B94890ED010AD0ED020A30EE59
:1035A000200AB04880ED000AAC4890ED020AAD4810
:1035B00080ED010A816C8847B04890ED000AAC4864
:1035C00080ED000A90ED020A80ED1B0A90ED020AE0
:1035D000D0ED030A30EE600A80ED140AA8480169B4
:1035E000884710EE104A2046FDF7ADF841EC190B64
:1035F0009D4890ED101BB0EE410AF0EE610A53ECCD
:10360000102B51EC190BFCF780FF41EC180BFDF768
:10361000DDF8974948600846816C88471FED8D0AA0
:103620008A4880ED000A934801699548884710EE62
:10363000104A2046FDF787F841EC190B8E4890EDB3
:10364000121BB0EE410AF0EE610A53EC102B51EC64
:10365000190BFCF75AFF41EC180BFDF7B7F87B4943
:1036600048600846816C88478648007848BB864891
:10367000007830BB754890ED0D0ADFED840AB4EE9A
:10368000E00AF1EE10FA04D89FED800A80ED0D0AF1
:103690000DE06E4890ED0D0ADFED7D0AB4EEE00A14
:1036A000F1EE10FA03DB9FED7A0A80ED0D0A674810
:1036B00090ED0D0ABDEEC00A10EE100A00B264498A
:1036C00088803AE1FFF74EFC01287CD16148007800
:1036D00001285ED10020604908601FEDBC0A6148E6
:1036E00080ED000A644890ED101BB0EE410AF0EE48
:1036F000610A9FED681B53EC112B51EC100BFCF78A
:1037000004FF41EC1D0B9FED650B53EC102BFCF7F8
:103710006EFF41EC1C0BB0EE4C0AF0EE6C0A05F0AB
:10372000C3FCB0EE40BAF0EE60BA9FED5E0B53EC16
:10373000102B51EC1B0BFCF7E8FE41EC190B5B481E
:103740000068FDF700F841EC1B0B1FEDCA0B53ECB2
:10375000102BFCF7D4FE41EC1A0B53EC192BFCF7A1
:10376000CEFE41EC180BFDF731F83E4948600846A3
:10377000816C88471FEDE30A3D4880ED000A4C4804
:1037800090ED000AB1EE400A394880ED010A816CE3
:10379000884730480078E8BB2F480068401C2E4915
:1037A000086008460068012805D12C4890ED020AFF
:1037B0002B4880ED000A2A4890ED000A294880ED48
:1037C000000A264800E07CE090ED020A254880EDE2
:1037D000010A816C88472048006801280CD12248E2
:1037E00090ED101BB0EE410AF0EE610A51EC100BA7
:1037F000FCF7ECFF1D4908601C4890ED000A1C48CE
:1038000080ED000A184890ED101BB0EE410AF0EE72
:10381000610A00E008E051EC100BFCF7D7FF1449F7
:1038200048600846816C88470C4890ED020A1348AE
:10383000D0ED020A30EE600A80ED010A0A4890EDF0
:10384000101BB0EE410AF0EE610A33E0100C0020CC
:10385000D42D002064000020202D00202C350020D5
:10386000042D002098060020F0360020082D0020AE
:1038700020010020D8000020983600209C3900202C
:10388000B4000020DF2E0020E02E00200000C8C27F
:103890000000C8424AD8124DFB2109400000000038
:1038A00000806640333333333333D33F340000205A
:1038B0003000002051EC100BFCF788FF2149086014
:1038C00039E0204890ED010AD0ED020A30EE200ADE
:1038D0001D4880ED000A1D4890ED020A1A4880ED4F
:1038E000010A816C8847174890ED000A184880ED5E
:1038F000000A1848016900E01EE0884710EE104AEF
:103900002046FCF720FF41EC190B134890ED101BEB
:10391000B0EE410AF0EE610A53EC102B51EC190B9A
:10392000FCF7F3FD41EC180BFCF750FF0849486029
:103930000846816C884700BF00BF00BFBDEC0C8B00
:1039400010BD00009C390020980600202C35002076
:1039500020010020B4000020F036002000BFFEE768
:103960000E48408840B90D480088012804D10B4812
:10397000C088401C0949C8800849C88800EBD0713C
:103980004910A0EB4101012903D10120034988809E
:1039900002E000200149888070470000A82D002027
:1039A00010B52DED068B044614B9BDEC068B10BD89
:1039B00014F8100F617800EB012000B200EE100A3D
:1039C000B8EEC00ABDEEC00A10EE100A00B2AF4950
:1039D0000880A078E17800EB012000B200EE100A28
:1039E000B8EEC00ABDEEC00A10EE100A00B2A74938
:1039F00048802079617900EB012000B200EE100AC6
:103A0000B8EEC00ABDEEC00A10EE100A00B29F491F
:103A10008880A07BE17B00EB012000B200EE100A61
:103A2000B8EEC00ADFED9A0A80EE201A994880EDC0
:103A3000001A207C617C00EB012000B200EE100A2D
:103A4000B8EEC00AB1EE400ADFED910A80EE201A0E
:103A5000904880ED011AA07CE17C103C00EB012035
:103A600000B200EE100AB8EEC00AF2EE040A80EED0
:103A7000201A894880ED001A884890ED000A88488D
:103A800080ED000A844890ED000A844880ED000A29
:103A900090ED000A8248D0ED000A30EE600ADFEDBA
:103AA000810AB4EEE00AF1EE10FA04DD7E48006807
:103AB000401E7D490860794890ED000A7848D0EDB5
:103AC000000A30EE600ADFED790AB4EEE00AF1EEAA
:103AD00010FA04D274480068401C734908607248A8
:103AE00000684FF4B471484300EE100AB8EEC00A03
:103AF0006A48D0ED000A30EE200A664880ED020ADE
:103B00006B4890ED101BB0EE410AF0EE610A51ECEB
:103B1000100B81F000419FED670B53EC102BFCF76D
:103B20004DFC9FED660B53EC102BFCF7EEFCFCF705
:103B3000EBFD00B263490880634890ED101BB0EEC6
:103B4000410AF0EE610A51EC100B81F000419FED4B
:103B50005F0B53EC102BFCF731FC9FED580B53EC33
:103B6000102BFCF7D2FCFCF7CFFD00B259490880BE
:103B70004D20594908705348B0F900004FF47A714C
:103B800090FBF1F03030544948704E48B0F90000D5
:103B90004FF47A7190FBF1F201FB1200642190FB6B
:103BA000F1F030304C4988704648B0F900004FF4CD
:103BB0007A7190FBF1F201FB1200642190FBF1F2AB
:103BC00001FB12000A2190FBF1F030304249C8702D
:103BD0003C48B0F900004FF47A7190FBF1F201FB20
:103BE0001200642190FBF1F201FB12000A2190FB0C
:103BF000F1F201FB12003030374908713548B0F955
:103C000000004FF47A7190FBF1F030303249487186
:103C10003048B0F900004FF47A7190FBF1F201FBEB
:103C20001200642190FBF1F030302B498871294853
:103C3000B0F900004FF47A7190FBF1F201FB120031
:103C4000642190FBF1F201FB12000A2190FBF1F0DC
:103C500030302149C8711F48B0F900004FF47A7123
:103C600090FBF1F201FB1200642190FBF1F201FBE9
:103C700012000A2190FBF1F201FB120030301649CC
:103C800008725220487200BF8FE6000090000020AA
:103C90000000C8422C3500208C000020AC00002021
:103CA000A800002000009643A4000020000096C356
:103CB000F0360020000000000080564000000000A8
:103CC00000002440960000209836002000000000EC
:103CD00000806640980000202035002010B5B2B06A
:103CE0000446202223492AA8FCF744FB214B203319
:103CF0000FCBCDE92823CDE9260120221D49303103
:103D00001EA8FCF737FB1B49503103C9CDE91C0144
:103D100020221849583114A8FCF72CFB00201090E1
:103D20001190129013900C900D900E900F902021F6
:103D300004A8FCF738FB002000900190029003904B
:103D40002AA860610CA8E06010A8206126A8C4F829
:103D50002407C4F89CD814A8C4F8A00804A8C4F880
:103D600098081EA8C4F890081CA8C4F8940832B09B
:103D700010BD0000A8A3000800BFFEE72DE9F04138
:103D80002DED088B04460D46002600272068606054
:103D9000287BE97A40EA0120206020686168401AA7
:103DA000E060E06810F5805F07DA606B401C6063DC
:103DB000E06800F50050A0610DE0E068B0F5805FBC
:103DC00007DD606B401E6063E068A0F50050A061F5
:103DD00001E0E068A061A269207C411C217404F12B
:103DE0001C0141F820202168606B01EB4030A0608D
:103DF000616B4FF4B47201FB02F0FCF767FC9FEDBE
:103E00001E0B53EC102BFCF7F2FB41EC180B216856
:103E10006269881AFCF75AFC9FED190B53EC102BC2
:103E2000FCF773FB9FED180B53EC102BFCF7DFFB3B
:103E300053EC182BFCF7C2FA41EC100B84ED100B7D
:103E4000207C062801D100202074002605E004F122
:103E50001C0050F826000744761C062EF7DB0620CF
:103E600097FBF0F000EE100AB8EEC00A84ED0E0ADF
:103E7000BDEC088BBDE8F08100000000000042406E
:103E80000000000000002440000000000000C040CE
:103E90002DE9F0412DED0A8B04460D460026B04673
:103EA0000027002008EE100A20686060287BE97A6D
:103EB00040EA0120206020686168401AE060E06804
:103EC00010F5805F07DA606B401C6063E06800F506
:103ED0000050A0610DE0E068B0F5805F07DD606B29
:103EE000401E6063E068A0F50050A06101E0E0685A
:103EF000A061A269207C411C217404F11C0141F8DD
:103F000020202168606B01EB4030A060616B4FF4B2
:103F1000B47201FB02F0FCF7D9FB9FED260B53ECCA
:103F2000102BFCF764FB41EC190B21686269881ABD
:103F3000FCF7CCFB9FED210B53EC102BFCF7E5FAC3
:103F40009FED200B53EC102BFCF751FB53EC192B7E
:103F5000FCF734FA41EC100B84ED100B207C0628A2
:103F600001D100202074002605E004F11C0050F867
:103F700026008044761C062EF7DBA97B687B41EA8D
:103F8000002007B2132097FBF0F000EE100AB8EE05
:103F9000C00A84ED0E0A297CE87B41EA002000B2C9
:103FA00008EE100AB8EEC80A84ED140ABDEC0A8BBC
:103FB000BDE8F081000000000000334028AFA1BC44
:103FC00086F23240000000000000C0402DE9F047BA
:103FD0002DED088B04460D460026B14600BF00BFFC
:103FE00020686060287BE97A40EA01202060206830
:103FF0006168401AE060E06810F5805F07DA606B86
:10400000401C6063E06800F50050A0610DE0E068CE
:10401000B0F5805F07DD606B401E6063E068A0F56F
:104020000050A06101E0E068A061A269207C411C11
:10403000217404F11C0141F820202168606B01EB20
:104040004030A060616B4FF4B47201FB02F0FCF7EA
:104050003DFB41EC180B21686269881AFCF736FBBE
:104060009FED2B0B53EC102BFCF74FFA9FED2A0B17
:1040700053EC102BFCF7BBFA53EC182BFCF79EF912
:1040800041EC100B84ED100B21686269881AFCF773
:104090001DFB9FED1F0B53EC102BFCF736FA9FED29
:1040A0001E0B53EC102BFCF7A2FA41EC100B84ED25
:1040B000120B207C062801D100202074002605E088
:1040C00004F11C0050F826008144761C062EF7DB14
:1040D000A97B687B41EA00284FF4B47018FB00F01C
:1040E0003C2190FBF1F000EE100AB8EEC00A84ED1E
:1040F0000E0A297CE87B41EA002007B200EE107A24
:10410000B8EEC00A84ED140ABDEC088BBDE8F08758
:104110000000000000807640000000000000C04069
:104120002DE9F0412DED0A8B04460D4600260027AF
:10413000002008EE100A20686060287BE97A40EAD7
:104140000120206020686168401AE060E06810F596
:10415000805F07DA606B401C6063E06800F5005028
:10416000A0610DE0E068B0F5805F07DD606B401E88
:104170006063E068A0F50050A06101E0E068A06124
:10418000A269207C411C217404F11C0141F820200B
:104190002168606B01EB4030A060616B4FF4B4723A
:1041A00001FB02F0FCF792FA41EC190B21686269FD
:1041B000881AFCF78BFA9FED1D0B53EC102BFCF7C4
:1041C000A4F99FED1C0B53EC102BFCF710FA53ECE9
:1041D000192BFCF7F3F841EC100B84ED100B207C4D
:1041E000062801D100202074002605E004F11C00FF
:1041F00050F826000744761C062EF7DB062097FBB6
:10420000F0F000EE100AB8EEC00A84ED0E0A297C28
:10421000E87B41EA002000B208EE100AB8EEC80AB6
:1042200084ED140ABDEC0A8BBDE8F08100000000AB
:1042300000807640000000000000C04003B591B04F
:10424000FEF796FE002802F093801298007800F0A6
:10425000100018B10120FE49488002E00020FC490E
:104260004880FB484088012807D1F948008820B9D8
:10427000F748C088401CF649C880F548C0880F90B0
:1042800000EBD07041100F98A0EB410001280AD13B
:104290000020F04908704FF4AA70EF490880AA2066
:1042A000EE4908800AE00120EA4908704FF4D7700F
:1042B000E94908804FF49670E8490880E84800789A
:1042C00000287CD11298007800F00100E8B3129821
:1042D000008800F48040D8B1E24800680B90FCF7F9
:1042E00032FA9FEDE10B53EC102BCDE90C019DED63
:1042F0000C0B51EC100BFCF761F8CDE90E019DEDB4
:104300000E0B51EC100BFCF761FAD64908606BE01C
:10431000D74800690F90D6480F998847D54890ED47
:104320000D1ACD48008800EE900AF8EE600A71EE92
:10433000200AF1EE600A20EE200ABDEEC00A10EE5F
:10434000100A00B2CC4908804EE0FFE712980078CE
:1043500000F00200A0B31298008800F48040D8B1A9
:10436000C04800680B90FCF7EEF99FEDBF0B53ECD3
:10437000102BCDE90C019DED0C0B51EC100BFCF753
:10438000BEF8CDE90E019DED0E0B51EC100BFCF7C4
:104390001DFAB449086027E0B54800690F90B44899
:1043A0000F998847AC4800880A3800EE900AF8EE6A
:1043B000E00AB04890ED0D1A70EE810A01E005E1C7
:1043C00009E020EE200ABDEEC00A10EE100A00B28D
:1043D000A949088008E00020A7490880A44880690E
:1043E0000F90A3480F9988471298007800F00400B6
:1043F000002869D01298008800F48040E0B1994804
:1044000040680B90FCF79FF99FED970B53EC102B36
:10441000CDE90C019DED0C0B51EC100BFBF7CEFF21
:10442000CDE90E019DED0E0B51EC100BFCF7CEF912
:104430008C49486001F08ABE9048006908908F4816
:10444000089988478DED090A0998FCF77CF9CDE9B0
:104450000C018848406B0390FCF775F99FED880BC1
:1044600053EC102BCDE904019DED040B51EC100B26
:10447000FCF74BF8CDE9080178480088FCF737F9DC
:10448000CDE906019DED080B53EC102B9DED060BBD
:1044900051EC100BFBF792FFCDE90A019DED0C0BDF
:1044A00053EC102B9DED0A0B51EC100BFCF72DF883
:1044B000CDE90E019DED0E0B51EC100BFCF724F92C
:1044C00000B26D494880B5E71298007800F0080006
:1044D000002871D01298008800F48040D8B161485B
:1044E00040680B90FCF72FF99FED5F0B53EC102BFE
:1044F000CDE90C019DED0C0B51EC100BFBF7FFFF10
:10450000CDE90E019DED0E0B51EC100BFCF75EF9A1
:10451000544948608EE759480069089057480899FF
:1045200088478DED090A0998FCF70DF9CDE90C01D2
:104530005048406B0190FCF706F99FED510B53EC8E
:10454000102BCDE902019DED020B51EC100BFBF796
:10455000DCFFCDE9060141480088FCF7C8F8CDE949
:1045600004019DED060B53EC102B9DED040B51EC5B
:10457000100BFBF723FFCDE908019DED080B51EC73
:10458000100B81F00041CDE90A019DED0C0B53ECBD
:10459000102B9DED0A0B51EC100BFBF7B6FFCDE98C
:1045A0000E019DED0E0B51EC100BFCF7ADF800B2B7
:1045B000314948803EE7FFE700212F4841802F48DE
:1045C00080690F902D480F99884733E72448007879
:1045D00001289FD11298007800F0010000287CD0BB
:1045E0001298007800F00400002877D0264890ED5B
:1045F000100B8DED000B9FED250B53EC102B9DED5B
:10460000000B51EC100BFBF7F2FF9FED220B53EC6C
:10461000102BCDE902019DED020B51EC100BFBF7C5
:1046200074FFCDE904019DED040B04F03DFD8DED1B
:10463000080B1248006904901048049988470648FE
:10464000008800EE900AF8EE600A20EE200A25E0CD
:10465000B02D0020C52D0020D02D0020D22D00200F
:10466000E02E00209C3900209A9999999999B93F98
:10467000942E0020341F0020D42D0020702E002006
:10468000333333333333D33F9836002000000000F8
:104690000080664000000060FB2109408DED050AA6
:1046A0000598FCF750F8CDE906019DED080B53EC99
:1046B000102B9DED060B51EC100BFBF726FFCDE9FF
:1046C0000C01FE4890ED100B8DED000B1FED110B52
:1046D00053EC102B9DED000B01E0E0E2ECE051EC1F
:1046E000100BFBF784FF1FED150B53EC102BCDE9DE
:1046F00002019DED020B51EC100BFBF706FFCDE91B
:1047000004019DED040B04F0F7FB8DED080BEC4864
:1047100000690490EA4804998847EA4800884042C2
:1047200000EE900AF8EEE00A20EE200A8DED050A70
:104730000598FCF708F8CDE906019DED080B53EC50
:10474000102B9DED060B51EC100BFBF7DEFECDE9B7
:104750000A019DED0C0B53EC102B9DED0A0B51EC57
:10476000100BFBF72BFECDE90E019DED0E0B51EC6E
:10477000100BFBF7C9FF00B2D3490880CF4890ED7A
:10478000100B8DED000B1FED3F0B53EC102B9DED2F
:10479000000B51EC100BFBF72AFF1FED420B53EC03
:1047A000102BCDE902019DED020B51EC100BFBF734
:1047B000ACFECDE904019DED040B04F09DFB8DEDF5
:1047C000080BC24800690490C04804998847BD4856
:1047D000008800EE900AF8EE600A20EE200A8DEDC7
:1047E000050A0598FBF7AFFFCDE906019DED080B23
:1047F00053EC102B9DED060B51EC100BFBF785FED7
:10480000CDE90C01AD4890ED100B8DED000B1FEDC7
:10481000610B53EC102B9DED000B51EC100BFBF7D3
:10482000E6FE1FED640B53EC102BCDE902019DED6C
:10483000020B51EC100BFBF768FECDE904019DED76
:10484000040B04F031FC8DED080B9D4800690490C9
:104850009B48049988479B48008800EE900AF8EE30
:10486000600A20EE200A8DED050A0598FBF76BFF24
:10487000CDE906019DED080B53EC102B9DED060BC9
:1048800051EC100BFBF741FECDE90A019DED0C0B3D
:1048900053EC102B9DED0A0B51EC100BFBF78EFD2A
:1048A000CDE90E019DED0E0B51EC100BFBF72CFF2B
:1048B00000B285494880BDE51298007800F00800F4
:1048C00000287DD07D4890ED100B8DED000B1FED85
:1048D000910B53EC102B9DED000B51EC100BFBF7E3
:1048E00086FE1FED940B53EC102BCDE902019DEDDC
:1048F000020B51EC100BFBF708FECDE904019DED16
:10490000040B04F0D1FB8DED080B70480069049096
:104910006E48049988476B48008800EE900AF8EECC
:10492000600A20EE200A8DED050A0598FBF70BFFC3
:10493000CDE906019DED080B53EC102B9DED060B08
:1049400051EC100BFBF7E1FDCDE90C015B4890ED5C
:10495000100B8DED000B1FEDB30B53EC102B9DEDE9
:10496000000B51EC100BFBF742FE1FEDB60B53ECA6
:10497000102BCDE902019DED020B51EC100BFBF762
:10498000C4FDCDE904019DED040B04F0B5FA8DEDF5
:10499000080B4B48006904904948049988474948E6
:1049A0000088404200EE900AF8EEE00A20EE200A6D
:1049B0008DED050A0598FBF7C6FECDE9060100E07E
:1049C000D1E09DED080B53EC102B9DED060B51EC47
:1049D000100BFBF79AFDCDE90A019DED0C0B53EC92
:1049E000102B9DED0A0B51EC100BFBF788FDCDE968
:1049F0000E019DED0E0B51EC100BFBF785FE00B286
:104A0000314908802D4890ED100B8DED000B1FED06
:104A1000E10B53EC102B9DED000B51EC100BFBF751
:104A2000E6FD1FEDE40B53EC102BCDE902019DEDEB
:104A3000020B51EC100BFBF768FDCDE904019DED75
:104A4000040B04F059FA8DED080B2048006904901E
:104A50001E48049988471B48008800EE900AF8EE2B
:104A6000600A20EE200A8DED050A0598FBF76BFE23
:104A7000CDE906019DED080B53EC102B9DED060BC7
:104A800051EC100BFBF741FDCDE90C010B4890ED0B
:104A9000100B8DED000B9FED0E0B53EC102B9DEDCD
:104AA000000B51EC100BFBF7A2FD9FED0B0B53EC31
:104AB000102BCDE902019DED020B11E0983600208C
:104AC000942E0020D02D0020D42D0020702E002008
:104AD000000000000080664000000060FB210940EB
:104AE00051EC100BFBF711FDCDE904019DED040B1A
:104AF00004F0DAFA8DED080BFE4800690490FD48D9
:104B000004998847FC48008800EE900AF8EE600A95
:104B100020EE200A8DED050A0598FBF714FECDE97D
:104B200006019DED080B53EC102B9DED060B51EC8F
:104B3000100BFBF7EAFCCDE90A019DED0C0B53ECE1
:104B4000102B9DED0A0B51EC100BFBF7D8FCCDE9B7
:104B50000E019DED0E0B51EC100BFBF7D5FD00B2D5
:104B6000E649488066E4E64890ED100B8DED040BB5
:104B70001FED290B53EC102B9DED040B51EC100B8A
:104B8000FBF735FD1FED2C0B53EC102BCDE9060187
:104B90009DED060B51EC100BFBF7B7FCCDE90801BE
:104BA0009DED080B04F0A8F98DED0C0BD1480069C0
:104BB0000890D04808998847CF480088404200EEC6
:104BC000900AF8EEE00A20EE200A8DED090A099815
:104BD000FBF7B9FDCDE90A019DED0C0B53EC102B51
:104BE0009DED0A0B51EC100BFBF78FFCCDE90E018C
:104BF0009DED0E0B51EC100BFBF786FD00B2BF498B
:104C00000880BF4890ED100B8DED040B1FED500B8D
:104C100053EC102B9DED040B51EC100BFBF7E7FC54
:104C20001FED530B53EC102BCDE906019DED060B48
:104C300051EC100BFBF769FCCDE908019DED080B69
:104C400004F032FA8DED0C0BAA4800690890A948CF
:104C500008998847A848008800EE900AF8EE600A94
:104C600020EE200A8DED090A0998FBF76CFDCDE9CD
:104C70000A019DED0C0B53EC102B9DED0A0B51EC32
:104C8000100BFBF742FCCDE90E019DED0E0B51EC34
:104C9000100BFBF739FD00B29849488013E41298D5
:104CA000007800F0020000287ED01298008800F4FE
:104CB0008040D8B1934800680B90FBF744FD9FED0E
:104CC000920B53EC102BCDE90C019DED0C0B51EC2C
:104CD000100BFBF714FCCDE90E019DED0E0B51EC12
:104CE000100BFBF773FD8749086013E412980078F6
:104CF00000F0040000287CD0814890ED100B8DED71
:104D0000000B1FED8D0B53EC102B9DED000B51ECA8
:104D1000100BFBF76CFC1FED900B53EC102BCDE947
:104D200002019DED020B51EC100BFBF7EEFBCDE900
:104D300004019DED040B04F0B7F98DED080B7448E8
:104D4000006904907248049988476B48008800EE17
:104D5000900AF8EE600A20EE200A8DED050A05980B
:104D6000FBF7F1FCCDE906019DED080B53EC102B90
:104D70009DED060B51EC100BFBF7C7FBCDE90C01C9
:104D80005F4890ED100B8DED000B1FEDAF0B53EC5A
:104D9000102B9DED000B51EC100BFBF728FC1FEDC9
:104DA000B20B53EC102B00E0EBE2CDE902019DEDDC
:104DB000020B51EC100BFBF7A8FBCDE904019DEDB4
:104DC000040B04F099F88DED080B4A480069049033
:104DD0004848049988474848008800EE900AF8EE51
:104DE000600A20EE200A8DED050A0598FBF7ABFC62
:104DF00000E0DBE0CDE906019DED080B53EC102B44
:104E00009DED060B51EC100BFBF77FFBCDE90A0182
:104E10009DED0C0B53EC102B9DED0A0B51EC100B80
:104E2000FBF7CCFACDE90E019DED0E0B51EC100B0A
:104E3000FBF76AFC00B231490880314890ED100B55
:104E40008DED000B1FEDDE0B53EC102B9DED000BD9
:104E500051EC100BFBF7CBFB1FEDE10B53EC102BD0
:104E6000CDE902019DED020B51EC100BFBF74DFB60
:104E7000CDE904019DED040B04F03EF88DED080B27
:104E80002348006904902248049988471A480088FA
:104E900000EE900AF8EE600A20EE200A8DED050A79
:104EA0000598FBF750FCCDE906019DED080B53EC8E
:104EB000102B9DED060B51EC100BFBF726FBCDE9FB
:104EC0000C010F4890ED100B8DED000B9FED110BB9
:104ED00053EC102B9DED000B51EC100BFBF787FBF7
:104EE0009FED0E0B53EC102BCDE902019DED020B53
:104EF00018E00000942E0020D02D0020D42D00209A
:104F0000983600209C3900209A9999999999B93F2F
:104F1000702E00200000000000806640000000604D
:104F2000FB21094051EC100BFBF7EFFACDE904012E
:104F30009DED040B04F0B8F88DED080BFE480069F8
:104F40000490FD4804998847FC480088404200EEE0
:104F5000900AF8EEE00A20EE200A8DED050A059889
:104F6000FBF7F1FBCDE906019DED080B53EC102B8F
:104F70009DED060B51EC100BFBF7C7FACDE90A01CA
:104F80009DED0C0B53EC102B9DED0A0B51EC100B0F
:104F9000FBF714FACDE90E019DED0E0B51EC100B51
:104FA000FBF7B2FB00B2E649488084E4129800782F
:104FB00000F0080000287CD0E24890ED100B8DED49
:104FC000000B1FED2C0B53EC102B9DED000B51EC47
:104FD000100BFBF70CFB1FED2F0B53EC102BCDE947
:104FE00002019DED020B51EC100BFBF78EFACDE99F
:104FF00004019DED040B04F057F88DED080BD24829
:1050000000690490D04804998847CC48008800EE95
:10501000900AF8EE600A20EE200A8DED050A059848
:10502000FBF791FBCDE906019DED080B53EC102B2E
:105030009DED060B51EC100BFBF767FACDE90C0167
:10504000C04890ED100B8DED000B1FED4E0B53EC97
:10505000102B9DED000B51EC100BFBF7C8FA1FED68
:10506000510B53EC102BCDE902019DED020B51ECDD
:10507000100BFBF74AFACDE904019DED040B03F098
:105080003BFF8DED080BAC4800690490AA480499D9
:105090008847AA48008800EE900AF8EE600A20EEE1
:1050A000200A8DED050A0598FBF74DFBCDE90601B9
:1050B00000E0BFE09DED080B53EC102B9DED060BBF
:1050C00051EC100BFBF721FACDE90A019DED0C0B19
:1050D00053EC102B9DED0A0B51EC100BFBF70FFA64
:1050E000CDE90E019DED0E0B51EC100BFBF70CFB07
:1050F00000B293490880934890ED100B8DED000BA2
:105100001FED7C0B53EC102B9DED000B51EC100BA5
:10511000FBF76DFA1FED7F0B53EC102BCDE902016D
:105120009DED020B51EC100BFBF7EFF9CDE90401FB
:105130009DED040B03F0E0FE8DED080B8248006945
:1051400004908148049988477C48008800EE900AC2
:10515000F8EE600A20EE200A8DED050A0598FBF7AF
:10516000F2FACDE906019DED080B53EC102B9DEDF5
:10517000060B51EC100BFBF7C8F9CDE90C01714897
:1051800090ED100B8DED000B1FED9E0B53EC102BD3
:105190009DED000B51EC100BFBF729FA1FEDA10B55
:1051A00053EC102BCDE902019DED020B51EC100BDD
:1051B000FBF7ABF9CDE904019DED040B03F074FF9F
:1051C0008DED080B5C48006904905B4804998847A2
:1051D0005A480088404200EE900AF8EEE00A20EEBD
:1051E000200A8DED050A0598FBF7ADFACDE9060119
:1051F0009DED080B53EC102B9DED060B51EC100BA5
:10520000FBF783F9CDE90A019DED0C0B53EC102B54
:105210009DED0A0B51EC100BFBF771F9CDE90E0176
:105220009DED0E0B51EC100BFBF76EFA00B24449EA
:10523000488097E4434890ED100B8DED040B1FED73
:10524000CB0B53EC102B9DED040B51EC100BFBF72B
:10525000CEF91FEDCE0B53EC102BCDE906019DEDE1
:10526000060B51EC100BFBF750F9CDE908019DED51
:10527000080B03F041FE8DED0C0B2F4800690890E0
:105280002D48089988472D48008800EE900AF8EECE
:10529000600A20EE200A8DED090A0998FBF753FAFF
:1052A000CDE90A019DED0C0B53EC102B9DED0A0B83
:1052B00051EC100BFBF729F9CDE90E019DED0E0B1A
:1052C00051EC100BFBF720FA00B21D4908801D4875
:1052D00090ED100B8DED040B1FEDF20B53EC102B2A
:1052E0009DED040B51EC100BFBF781F91FEDF50B55
:1052F00053EC102BCDE906019DED060B51EC100B84
:10530000FBF703F9CDE908019DED080B03F0CCFE96
:105310008DED0C0B084800690890074808998847EC
:1053200006480088404200EE900AF8EEE00A20EEBF
:10533000200A8DED090A09E0942E0020D02D0020CE
:10534000D42D002098360020702E00200998FBF7FD
:10535000FAF9CDE90A019DED0C0B53EC102B9DEDF4
:105360000A0B51EC100BFBF7D0F8CDE90E019DEDC7
:105370000E0B51EC100BFBF7C7F900B2FE49488049
:105380008CE41298007800F0040000287ED0129877
:10539000008800F48040D8B1F84840680B90FBF7D3
:1053A000D2F99FEDF70B53EC102BCDE90C019DEDDD
:1053B0000C0B51EC100BFBF701F8CDE90E019DED44
:1053C0000E0B51EC100BFBF701FAEC49486065E459
:1053D0001298007800F0010000287DD0EA4890ED96
:1053E000100B8DED000B9FEDE90B53EC102B9DED99
:1053F000000B51EC100BFBF7FAF89FEDE60B53ECAA
:10540000102BCDE902019DED020B51EC100BFBF7C7
:105410007CF8CDE904019DED040B03F045FE8DED14
:10542000080BDE4800690490DC4804998847DC4892
:10543000008800EE900AF8EE600A20EE200A8DED5A
:10544000050A0598FBF77FF9CDE906019DED080BEC
:1054500053EC102B9DED060B51EC100BFBF755F8A0
:10546000CDE90C01C84890ED100B8DED000B9FEDC0
:10547000C70B53EC102B9DED000B51EC100BFBF701
:10548000B6F89FEDC40B53EC102B00E0DFE2CDE942
:1054900002019DED020B51EC100BFBF736F8CDE944
:1054A00004019DED040B03F027FD8DED080BBD48B5
:1054B00000690490BB4804998847B9480088404275
:1054C00000EE900AF8EEE00A20EE200A8DED050AC3
:1054D0000598FBF738F900E0C0E0CDE906019DED45
:1054E000080B53EC102B9DED060B51EC100BFBF74A
:1054F0000CF8CDE90A019DED0C0B53EC102B9DED42
:105500000A0B51EC100BFAF759FFCDE90E019DED96
:105510000E0B51EC100BFBF7F7F800B29649088020
:10552000994890ED100B8DED000B9FED980B53EC0F
:10553000102B9DED000B51EC100BFBF758F89FED75
:10554000950B53EC102BCDE902019DED020B51ECB4
:10555000100BFAF7DAFFCDE904019DED040B03F01F
:10556000CBFC8DED080B8D48006904908B480499A5
:1055700088478B48008800EE900AF8EE600A20EE1B
:10558000200A8DED050A0598FBF7DDF8CDE9060147
:105590009DED080B53EC102B9DED060B51EC100B01
:1055A000FAF7B3FFCDE90C01774890ED100B8DEDC4
:1055B000000B9FED760B53EC102B9DED000B51EC87
:1055C000100BFBF714F89FED730B53EC102BCDE988
:1055D00002019DED020B51EC100BFAF796FFCDE99D
:1055E00004019DED040B03F05FFD8DED080B6D488C
:1055F000006904906B48049988476948008800EE68
:10560000900AF8EE600A20EE200A8DED050A059852
:10561000FBF799F8CDE906019DED080B53EC102B33
:105620009DED060B51EC100BFAF76FFFCDE90A0167
:105630009DED0C0B53EC102B9DED0A0B51EC100B58
:10564000FAF7BCFECDE90E019DED0E0B51EC100BEF
:10565000FBF75AF800B2484948801EE212980078D9
:1056600000F0020000287CD0474890ED100B8DED33
:10567000000B9FED460B53EC102B9DED000B51ECF6
:10568000100BFAF7B4FF9FED430B53EC102BCDE951
:1056900002019DED020B51EC100BFAF736FFCDE93C
:1056A00004019DED040B03F0FFFC8DED080B3B485E
:1056B000006904903948049988473948008800EE09
:1056C000900AF8EE600A20EE200A8DED050A059892
:1056D000FBF739F8CDE906019DED080B53EC102BD3
:1056E0009DED060B51EC100BFAF70FFFCDE90C0105
:1056F000254890ED100B8DED000B9FED240B53EC26
:10570000102B9DED000B51EC100BFAF770FF9FED85
:10571000210B53EC102BCDE902019DED020B51EC56
:10572000100BFAF7F2FECDE904019DED040B03F036
:10573000E3FB8DED080B1B480069049019480499A0
:1057400088471748008800EE900AF8EE600A20EEBD
:10575000200A8DED050A0598FAF7F5FFCDE9060157
:1057600000E0D9E09DED080B53EC102B9DED060BEE
:1057700051EC100B18E00000D42D00209C390020C3
:105780009A9999999999B93F98360020000000009C
:105790000080664000000060FB210940702E002060
:1057A000D22D0020942E0020FAF7AFFECDE90A0199
:1057B0009DED0C0B53EC102B9DED0A0B51EC100BD7
:1057C000FAF7FCFDCDE90E019DED0E0B51EC100B2F
:1057D000FAF79AFF00B2FE490880FE4890ED100BE0
:1057E0008DED000B1FED170B53EC102B9DED000BF7
:1057F00051EC100BFAF7FBFE1FED1A0B53EC102BBC
:10580000CDE902019DED020B51EC100BFAF77DFE84
:10581000CDE904019DED040B03F06EFB8DED080B4B
:10582000ED4800690490EC4804998847EB480088EB
:1058300000EE900AF8EE600A20EE200A8DED050ACF
:105840000598FAF780FFCDE906019DED080B53ECB2
:10585000102B9DED060B51EC100BFAF756FECDE91F
:105860000C01DC4890ED100B8DED000B1FED390B9A
:1058700053EC102B9DED000B51EC100BFAF7B7FE1B
:105880001FED3C0B53EC102BCDE902019DED020BFB
:1058900051EC100BFAF739FECDE904019DED040B34
:1058A00003F002FC8DED080BCD4800690490CC4854
:1058B00004998847C9480088404200EE900AF8EEF3
:1058C000E00A20EE200A8DED050A0598FAF73BFF65
:1058D000CDE906019DED080B53EC102B9DED060B59
:1058E00051EC100BFAF711FECDE90A019DED0C0BFE
:1058F00053EC102B9DED0A0B51EC100BFAF75EFDEB
:10590000CDE90E019DED0E0B51EC100BFAF7FCFEEC
:1059100000B2AF494880C0E0AE4890ED100B8DED6D
:10592000040B1FED660B53EC102B9DED040B51EC9B
:10593000100BFAF75CFE1FED690B53EC102BCDE951
:1059400006019DED060B51EC100BFAF7DEFDCDE9DB
:1059500008019DED080B03F0A7FB8DED0C0B9E4895
:10596000006908909C48089988479C48008800EE88
:10597000900AF8EE600A20EE200A8DED090A0998D7
:10598000FAF7E1FECDE90A019DED0C0B53EC102B6B
:105990009DED0A0B51EC100BFAF7B7FDCDE90E01A6
:1059A0009DED0E0B51EC100BFAF7AEFE00B28849DC
:1059B0000880884890ED100B8DED040B1FED8D0BCA
:1059C00053EC102B9DED040B51EC100BFAF70FFE6E
:1059D0001FED900B53EC102BCDE906019DED060B4E
:1059E00051EC100BFAF791FDCDE908019DED080B84
:1059F00003F082FA8DED0C0B774800690890764829
:105A0000089988477548008800EE900AF8EE600A09
:105A100020EE200A8DED090A0998FAF794FECDE9E7
:105A20000A019DED0C0B53EC102B9DED0A0B51EC74
:105A3000100BFAF76AFDCDE90E019DED0E0B51EC4E
:105A4000100BFAF761FE00B2614948807EE31298BC
:105A5000007800F0080000287ED01298008800F43A
:105A60008040D8B15F4840680B90FAF76CFE1FED9C
:105A7000BC0B53EC102BCDE90C019DED0C0B51EC44
:105A8000100BFAF73CFDCDE90E019DED0E0B51EC2C
:105A9000100BFAF79BFE5349486057E312980078C1
:105AA00000F0010000287DD04A4890ED100B8DEDEC
:105AB000000B1FEDCA0B53EC102B9DED000B51ECAE
:105AC000100BFAF794FD1FEDCD0B53EC102BCDE925
:105AD00002019DED020B51EC100BFAF716FDCDE91A
